:100000000C942A000C9447000C9447000C94470071
:100010000C9447000C9447000C9447000C94470044
:100020000C9447000C9447000C9447000C94470034
:100030000C9447000C9422010C9447000C94470048
:100040000C9447000C9447000C9447000C94470014
:100050000C94470011241FBECFE5D8E0DEBFCDBF12
:1000600013E0A0E6B0E0E6E0F7E102C005900D92F3
:10007000A035B107D9F714E0A0E5B3E001C01D92A7
:10008000A336B107E1F70E9432060C94810B0C9461
:10009000000088BB80E282BB87EB9BE00197F1F711
:1000A00000C0000012BA8FEB94EDA1E081509040A7
:1000B000A040E1F700C00000089588E30E944900D5
:1000C00087EB9BE00197F1F700C0000081E00E9400
:1000D000490087EB9BE00197F1F700C000008CE03E
:1000E0000E94490087EB9BE00197F1F700C00000F8
:1000F00080E80E94490087EB9BE00197F1F700C080
:100100000000089588BB88E282BB87EB9BE00197E3
:10011000F1F700C0000088E082BB87E99AE301970D
:10012000F1F700C000000895EF92FF92CF93DF93A4
:10013000E82EE7017E01F92EE70102C00E9482004D
:1001400089918823D9F7DF91CF91FF90EF9008959F
:1001500081E00E9449000895613011F090E801C0EB
:1001600090EC890F0E9449000895CF92DF92EF92A0
:10017000FF920F931F93CF93DF93EC017B01042F2A
:10018000152F13C0C031D1052CF00894E11CF11CCF
:10019000C0E0D0E08C2F6E2D0E94AC000F5F1F4F8F
:1001A000F60180810E94820021966801F801808119
:1001B000882341F7DF91CF911F910F91FF90EF902E
:1001C000DF90CF9008950E945D0008950F931F93D4
:1001D000CF93DF938C01EB010E94A800C8010E941D
:1001E000940080E061E00E94AC00CE010E94940087
:1001F000DF91CF911F910F91089510BC89B98AB1F9
:1002000088698AB980B5866880BD08955D9BFECFF8
:100210008CB908955F9BFECF8CB10895EF92FF9249
:10022000CF93DF93E82EE7017E01F92EE70102C0AC
:100230000E94060189918823D9F7DF91CF91FF9021
:10024000EF9008951F920F920FB60F9211248F9383
:100250009F93EF93FF938CB1E0915103F091520380
:10026000ED5AFC4F80838091510390915203019687
:100270009093520380935103E0915103F091520304
:10028000E15BFC4F80818F3451F5E0915103F09197
:100290005203E05BFC4F80818B3409F5E091510300
:1002A000F0915203EF5AFC4F80818D30C1F4E09100
:1002B0005103F0915203EE5AFC4F80818A3079F459
:1002C000E0915103F0915203ED5AFC4F108281E00E
:1002D00080935003109252031092510301C080E0AA
:1002E000E0915103F0915203E15BFC4F90819F3408
:1002F00061F5882349F5E0915103F0915203E05BE9
:10030000FC4F9081923509F5E0915103F091520331
:10031000EF5AFC4F90819D30C1F4E0915103F09170
:100320005203EE5AFC4F90819A3079F4E0915103D8
:10033000F0915203ED5AFC4F108282E080935003FB
:10034000109252031092510381E0E0915103F09119
:100350005203EE5AFC4F90819A3009F056C0882320
:1003600009F052C0E0915103F0915203EF5AFC4F53
:1003700090819D3009F049C0E0915103F091520302
:10038000E15BFC4F90819C3209F03FC0E09151034A
:10039000F0915203E25BFC4F90819232B1F5E09113
:1003A0005103F0915203E35BFC4F90819D3469F55A
:1003B000E0915103F0915203E45BFC4F908193353F
:1003C00021F5E0915103F0915203E55BFC4F9081E0
:1003D0009232D9F481E080935204E0915103F0917C
:1003E0005203E05BFC4F80818093DC028FEF8093AF
:1003F000DD02E0915103F0915203ED5AFC4F10825F
:10040000109252031092510381E0E0915103F09158
:100410005203EE5AFC4F90819A3009F05CC0882359
:1004200009F059C0E0915103F0915203EF5AFC4F8B
:1004300090819D3009F04FC0E0915103F09152033B
:10044000E25BFC4F90819C3209F045C0E091510382
:10045000F0915203E35BFC4F90819232E1F5E09121
:100460005103F0915203E45BFC4F90819D3499F568
:10047000E0915103F0915203E55BFC4F908193357D
:1004800051F5E0915103F0915203E65BFC4F9081EE
:10049000923209F581E080935204E0915103F0918A
:1004A0005203E15BFC4F80818093DC02E0915103B9
:1004B000F0915203E05BFC4F80818093DD02E0917C
:1004C0005103F0915203ED5AFC4F108210925203E7
:1004D0001092510381E0E0915103F0915203EE5AE2
:1004E000FC4F90819A30B1F58823A1F5E09151033A
:1004F000F0915203EF5AFC4F90819D3059F5E091F5
:100500005103F0915203E05BFC4F9081973411F559
:10051000E0915103F0915203E15BFC4F90819E34D6
:10052000C9F4E0915103F0915203E25BFC4F9081DA
:10053000993481F4E0915103F0915203E35BFC4F55
:100540009081923539F481E08093530410925203E4
:1005500010925103E0915103F0915203EE5AFC4F77
:1005600090819235A1F5882391F5E0915103F091A6
:100570005203EF5AFC4F80818F3449F5E0915103CB
:10058000F0915203E05BFC4F8081823501F5E091F0
:100590005103F0915203E15BFC4F80818235B9F445
:1005A000E0915103F0915203E25BFC4F808185346E
:1005B00071F4E0915103F0915203ED5AFC4F108217
:1005C00082E0809350031092520310925103FF91E6
:1005D000EF919F918F910F900FBE0F901F901895E4
:1005E000282F392FF90120E030E002C02F5F3F4F64
:1005F00081918823D9F7C9010895CF92DF92EF92B4
:10060000FF920F931F93DF93CF9300D0CDB7DEB748
:100610006C01CB0169837A830E94F0028C01C601D0
:100620000E94F002AC01401B510B80E090E0698118
:100630007A810BC0ED90F1900196EF1431F42F5FA9
:100640003F4F20173107B4F319C04817590744F03A
:10065000D601A80FB91FE62FF72F20E030E0F1CF29
:100660002FEF3FEFC9010F900F90CF91DF911F91B6
:100670000F91FF90EF90DF90CF9008959C01201B89
:10068000310BF0CFCF92DF92EF92FF920F931F9337
:10069000DF93CF9300D000D0CDB7DEB76C01CB0194
:1006A0004B835C8369837A830E94F0028C01C601CC
:1006B0000E94F0027C01E01AF10A4B815C81842FD8
:1006C000952F69817A810BC05D91419101965417F4
:1006D00031F42F5F3F4F20173107B4F31BC0E816EA
:1006E000F90644F0D601A80FB91FE62FF72F20E036
:1006F00030E0F1CF2FEF3FEFC9010F900F900F9037
:100700000F90CF91DF911F910F91FF90EF90DF90AD
:10071000CF9008959C01201B310BEECFEF92FF92FA
:100720000F931F93CF93DF938C01EB017A01CA01E2
:1007300001960E944E0A9C01C00FD11FFC0180E06F
:1007400090E003C04991419301968E159F05D4F323
:10075000820F931FFC011082C901DF91CF911F917D
:100760000F91FF90EF900895EF92FF920F931F93D8
:10077000CF93DF938C01F62EE72E0E94F002EC015E
:100780008F2D9E2D0E94F002C817D907A1F4202FAB
:10079000312FD9019701832F922FFC0180E090E047
:1007A00005C03D912191321731F40196C817D90740
:1007B000C4F781E001C080E0DF91CF911F910F91DC
:1007C000FF90EF900895EF92FF920F931F93CF93B6
:1007D000DF938C017B01C0E0D0E040E050E0C80135
:1007E000B7010E9442032FEF8F3F920729F0219615
:1007F000AC014F5F5F4FF3CFCE01DF91CF911F91DF
:100800000F91FF90EF900895282F392FD901FB0108
:1008100080E090E002C0219301962D912223D9F728
:10082000680F791FFB01108208956F927F928F925B
:100830009F92AF92BF92CF92DF92EF92FF920F936F
:100840001F93CF93DF938C016B01EA010E94E303B6
:10085000998388830196880F991F0E944E0A3C0154
:10086000882E992EAA24BB24C0E0D0E0C801B6018E
:10087000AE010E9442037C018FEFE8168FEFF8066D
:10088000A9F0A7014C1B5D0BC801BE010E948E039D
:10089000F401819391934F01C6010E94F0020894E4
:1008A000A11CB11CEC01CE0DDF1DE0CFC8010E94E0
:1008B000F002AC014C1B5D0BC801BE010E948E030F
:1008C000F501EE0FFF1FE60DF71D91838083C30135
:1008D000DF91CF911F910F91FF90EF90DF90CF901C
:1008E000BF90AF909F908F907F906F900895CF9220
:1008F000DF92EF92FF920F931F93CF93DF936C01E0
:100900007B01982F092F1D2DC0E0D0E007C0F80112
:10091000819191918F010E94E80A2196EC16FD06C3
:10092000B4F7C6010E94E80ADF91CF911F910F91A1
:10093000FF90EF90DF90CF9008952F923F924F92CB
:100940005F926F927F928F929F92AF92BF92CF925F
:10095000DF92EF92FF920F931F93CF93DF938C015F
:100960004B01342E252E0E94E303EC01C8010E94A6
:10097000F0027C01C4010E94F0022C01832D922D13
:100980000E94F0023C010894E11CF11C9C01241916
:1009900035092C9FC0012D9F900D3C9F900D112477
:1009A0008E0D9F1D0E944E0A5C01C0E0D0E0EE2437
:1009B000FF24C801B401A7010E9442036501CC0EC7
:1009C000DD1E2FEF8F3F920739F1D801AE0DBF1D0D
:1009D000F60120E030E0AC014E195F0905C06D91D1
:1009E000619321962F5F3F4F24173507C4F3910180
:1009F000A32FB22DF501EC0FFD1F20E030E005C064
:100A00004D91419321962F5F3F4F26153705C4F333
:100A10007C01E40CF51CCDCFC8010E94F002AC01B2
:100A20004E195F09C801B7010E948E03682E892EF6
:100A3000982FE92EF82C00E010E009C0F701819111
:100A40007F01F60181936F0121960F5F1F4F862D65
:100A5000982D0E94F0020817190784F3862D982D0F
:100A60000E94E80ACA0DDB1D1882C501DF91CF91F3
:100A70001F910F91FF90EF90DF90CF90BF90AF90BC
:100A80009F908F907F906F905F904F903F902F90AE
:100A900008950F931F938C010E94F00201960E940B
:100AA0004E0A9C01402F512FDA01E82FF92F80E0E8
:100AB00090E008C0542F51545A3108F4405E4083EE
:100AC000019631964D914423A9F7820F931FFC01A3
:100AD0001082C9011F910F910895282F392FF90114
:100AE00020E030E010C0C901880F991F53E0220FA9
:100AF000331F5A95E1F7820F931F242F30E02053C4
:100B00003040280F391F4191442369F7C9010895E6
:100B10000E940E018091DE020E9406010895DF937B
:100B2000CF930F92CDB7DEB769830E940E01698122
:100B3000862F0E9406018091DE020E9406010F901E
:100B4000CF91DF910895DF93CF9300D0CDB7DEB77B
:100B50004A8369830E940E016981862F0E940601E3
:100B60004A81842F0E9406018091DE020E940601C4
:100B70000F900F90CF91DF910895EF92FF920F9316
:100B80001F93DF93CF930F92CDB7DEB77C018B011C
:100B900080E690E049830E940E01C7010E940E0189
:100BA0008AE690E00E940E01C8010E940E01498170
:100BB000413019F48DE690E004C0423021F486E71C
:100BC00090E00E940E018AE10E9406018091DE02FF
:100BD0000E9406010F90CF91DF911F910F91FF901E
:100BE000EF900895CF92DF92EF92FF920F931F93B1
:100BF000DF93CF930F92CDB7DEB77C016B018A01F3
:100C000080E690E029830E940E01C7010E940E0138
:100C10008AE690E00E940E01C6010E940E0180E269
:100C20000E940601C8010E940E012981213019F499
:100C30008DE690E004C0223021F486E790E00E9427
:100C40000E018AE10E9406018091DE020E940601E7
:100C50000F90CF91DF911F910F91FF90EF90DF9058
:100C6000CF9008954F925F926F927F928F929F9252
:100C7000AF92BF92CF92DF92EF92FF920F931F93AA
:100C8000DF93CF9300D000D0CDB7DEB71A821982A0
:100C90008FEF87BB9CEF91BB84BB1ABA1BBA0E9433
:100CA0005D008EE40E94FD0078940E94A8008FE70A
:100CB00090E00E9494008FEF9EE9A4E28150904062
:100CC000A040E1F700C00000109250038AE890E0D5
:100CD0000E948805809150038823E1F3809150039E
:100CE0008130C1F40E94A8008DE890E068E970E0CE
:100CF0000E94E6008FEF9EE9A4E281509040A04060
:100D0000E1F700C000001092500383EA90E00E94D7
:100D1000880518C00E94A8008DE890E066EB70E09E
:100D20000E94E6008FEF9EE9A4E281509040A0402F
:100D3000E1F700C000000E94A8008EEB90E00E9446
:100D40009400FFCF809150038823E1F380915003FA
:100D5000813039F480ED90E068E970E00E94E600AF
:100D60000BC080915003823039F48FED90E06FEE2C
:100D700070E00E94E600FFCF8FEF9EE9A4E2815071
:100D80009040A040E1F700C0000081E08093500354
:100D90001092570410925203109251032E0108949E
:100DA000411C511C80915003813009F050C00E94B9
:100DB000A80080915704882329F481E091E061E143
:100DC00071E030C0813029F48DE191E06DE271E095
:100DD00029C08A3029F487E391E065E471E022C0FC
:100DE000863029F487E391E064E571E01BC0873029
:100DF00029F487E391E065E671E014C0883029F4B6
:100E000087E391E065E771E00DC0893029F487E35D
:100E100091E06EE771E006C0843031F487E391E041
:100E20006FE871E00E94E6008FEF9EE9A4E2815036
:100E30009040A040E1F700C0000080915704882353
:100E400019F01092570416C010925003ABCF809146
:100E50005003823099F40E94A80080EA91E00E9439
:100E600094008FEF9EE9A4E281509040A040E1F70A
:100E700000C0000081E08093500394CF8091520421
:100E8000813009F0BBC10E94A8008FEA91E00E9466
:100E900094008091DD028F3F19F48091DC0206C03E
:100EA0008091DC020E9482008091DD020E9482001B
:100EB0001092500302E08091DD028F3F39F460917F
:100EC000DC028BEB91E00E948F0512C06091DC0286
:100ED0004091DD028BEB91E00E94A30509C08FEFEA
:100EE00092E5A7E081509040A040E1F700C00000EB
:100EF00080915003882399F380915003813031F021
:100F00000F5F063019F010925003D5CF8091500337
:100F1000813009F039C1809158048823E9F083E5D4
:100F200093E064EC71E0AE014D5F5F4F0E941504E9
:100F30008C016091EE027091EF02DC0116968D91AA
:100F40009C9117970E94B4036B817C81882309F4DC
:100F500095C1C8010E94770483E593E060EE71E0DB
:100F600045E554E00E9415047C01DC0114968D9146
:100F70009C9115970E9449058C01F7018481958108
:100F80000E94E80AD70115961C930E931497C80186
:100F900063EE71E0A2010E9415046C01FC01008166
:100FA000118110935A0400935904A280B380B09227
:100FB0005E04A0925D048480958090925C0480928F
:100FC0005B04C8010E94F0023C018630910509F0E3
:100FD000BBC0C50165EE71E00E94B403813009F029
:100FE000A1C0C40160E070E041E050E00E948E03C7
:100FF0005C016BEE71E00E94B403882309F478C0B1
:1010000080915B0490915C0461E070E042E050E00C
:101010000E948E038C010E946D059C01215030407E
:1010200026303105A8F06091590470915A048091DE
:10103000FF02909100034DEE51E022E00E94F20584
:1010400081E092E06DEE71E00E94E60089E04AC026
:10105000681A790A81E090E002C0880F991F6A94AB
:10106000E2F785BB89E092E062E172E00E94E6006F
:10107000C8010E94940020E030E00CC087EB9BE0A8
:101080000197F1F700C0000097E0213D390731F0EA
:101090002F5F3F4FCE9902C0CF9BF0CF15BA809102
:1010A000FF02909100036091590470915A04A7E0E7
:1010B000203D3A0768F04CE152E022E00E94F20540
:1010C00081E092E065E771E00E94E60088E00AC0F6
:1010D00041E00E94BD058BE292E068E970E00E9469
:1010E000E60081E080935704C8010E94E80A16C018
:1010F0006091590470915A048091FF02909100030D
:1011000042E352E022E00E94F20581E092E062E3D5
:1011100072E00E94E60086E080935704C5010E94B9
:10112000E80A25C08091FF0290910003B80145E4D0
:1011300051E022E00E94F20581E092E065E471E076
:101140000E94E6008AE011C08091FF0290910003A6
:10115000B80146E452E022E00E94F20586E592E002
:1011600062E672E00E94E60084E08093570460919A
:10117000550470915604C7010E94770469817A81F1
:10118000C6010E94770416C080915003823091F40A
:101190008091FF029091000361E772E042E00E94BB
:1011A000BD0586E992E065E671E00E94E60087E011
:1011B000809357048091DD028F3F39F46091DC0207
:1011C00086EA92E00E948F0508C06091DC0240919F
:1011D000DD0286EA92E00E94A3058FEF9EE9A4E279
:1011E00081509040A040E1F700C000008FEF809355
:1011F000DC028093DD0210925204D4CD009153049E
:10120000013009F0CFCD0E94A8008FEA92E061EC96
:1012100072E00E94E6008FEF92E5A7E081509040D7
:10122000A040E1F700C000000093500381E093E08C
:1012300063E573E00E94040480915003813009F05B
:101240000DC180915804882399F183E593E064EC03
:1012500071E0AE014D5F5F4F0E9415048C016091FB
:10126000EE027091EF02DC0116968D919C9117971A
:101270000E94B4036B817C818823B9F4C8010E9469
:101280007704F801468157818091FF029091000315
:1012900066EC71E022E00E94F205109252048FEF9A
:1012A0008093DC028093DD027DCDC8010E9477042B
:1012B00083E593E060EE71E045E554E00E9415049B
:1012C0008C01DC0114968D919C9115970E94490523
:1012D0007C01F801848195810E94E80AD801159665
:1012E000FC92EE921497C70163EE71E0A2010E9496
:1012F00015047C01FC018081918190935A048093B4
:101300005904C280D380D0925E04C0925D04A48050
:10131000B580B0925C04A0925B040E94F0024C0184
:101320008630910509F084C0C60165EE71E00E9427
:10133000B403813009F074C0C50160E070E041E0A1
:1013400050E00E948E035C016BEE71E00E94B403DA
:10135000882309F458C080915B0490915C0461E09B
:1013600070E042E050E00E948E036C010E946D0527
:101370009C01215030402630310540F081E092E060
:101380006DEE71E00E94E60089E037C0881A990A84
:1013900081E090E002C0880F991F8A94E2F785BB34
:1013A00089E092E062E172E00E94E600C6010E94DC
:1013B000940080E090E00BC0A7EBBBE01197F1F741
:1013C00000C00000B7E0813D9B0729F00196CE994F
:1013D00002C0CF9BF1CF15BAE7E0803D9E0740F0F9
:1013E00081E092E065E771E00E94E60088E005C0D8
:1013F0008FEC92E00E94940081E080935704C60134
:101400000E94E80A09C081E092E062E372E00E9473
:10141000E60086E080935704C5010E94E80A11C0E7
:1014200081E092E065E471E00E94E6008AE007C096
:1014300086E592E062E672E00E94E60084E0809336
:1014400057046091550470915604C8010E947704B6
:1014500069817A81C7010E9477040DC08091500391
:10146000823049F486E992E065E671E00E94E60088
:1014700087E0809357048FEF9EE9A4E2815090406B
:10148000A040E1F700C000008FEF8093DC02809362
:10149000DD02109252041092530484CCCF93DF9358
:1014A0008230910510F482E090E0E0916104F091C7
:1014B000620440E050E020E030E026C060817181AD
:1014C00068177907E0F06817790781F482819381C2
:1014D0002115310531F0D90113969C938E93129703
:1014E0002BC0909362048093610426C0411551057E
:1014F00019F06417750718F4AB01E901DF019F01CA
:1015000072816381E72FF62F3097C1F6411551059F
:1015100001F1481B590B4430510580F412968D910E
:101520009C911397209719F09B838A8304C0909312
:10153000620480936104FD01329646C0FD01E40F10
:10154000F51F819391934250504011965C934E93B6
:101550003BC020915F04309160042115310541F4B6
:1015600020914C0330914D033093600420935F042D
:1015700020914E0330914F032115310541F42DB7D1
:101580003EB740914A0350914B03241B350BE09129
:101590005F04F0916004E217F307A0F42E1B3F0BE9
:1015A0002817390778F0AC014E5F5F4F24173507D5
:1015B00048F04E0F5F1F5093600440935F04819387
:1015C000919302C0E0E0F0E0CF01DF91CF91089568
:1015D000CF93DF93009709F491C0FC0132971382F7
:1015E000128260916104709162046115710581F449
:1015F00020813181280F391F80915F049091600410
:101600008217930799F5F0936004E0935F0476C026
:10161000DB0180E090E002C0CD01D901AE17BF0729
:1016200048F412962D913C91139721153105A1F79D
:10163000CD0121C0B383A283EF01499159919E014D
:10164000240F351FA217B30779F42D913C91119700
:10165000240F351F2E5F3F4F3183208312962D912B
:101660003C91139733832283009729F4F09362040B
:10167000E093610443C0DC011396FC93EE93129750
:101680004D915D91A40FB51FEA17FB0769F4208106
:101690003181240F351F2E5F3F4FEC0139832883A2
:1016A000228133813B832A83E0E0F0E002C0FB012A
:1016B000BC01DB0112968D919C9113970097B9F7AD
:1016C0009B012E5F3F4F8D919C911197820F931F2D
:1016D00040915F04509160044817590779F430979E
:1016E00029F4109262041092610402C013821282E3
:1016F000225030403093600420935F04DF91CF91FB
:061700000895F894FFCFEC
:1017060061742B636D67733D2200220D0020737593
:10171600636365737300206661696C757265007535
:101726004320776F726B696E670061740047534D93
:1017360020696E69742E3A00737563636573736608
:10174600756C0061742B636D6764613D2244454C82
:1017560020414C4C22006661696C757265005379B4
:101766007374656D2048616C74696E672E2E2E0049
:101776006D6573736167652044656C6574650063A8
:10178600616E27742064656C2E206D73672E00735E
:10179600797374656D2068616C74696E672E2E2E80
:1017A6000056656E64696E67204D616368696E6593
:1017B60000436F64653A20766D3030310050726FA9
:1017C600647563742044726F707065640054686158
:1017D6006E6B20596F75004C617374204D65737381
:1017E6006167653A00766D436F646520696E766160
:1017F6006C6964006974656D436F646520696E7613
:10180600616C6964003520526574726965732045A0
:1018160072726F72004F76657266616C6C00756EDF
:10182600617661696C2E2070726F647563740075E1
:101836006E642E2070696E436F6465206C656E0061
:101846004572726F72205265636569766564006DD4
:1018560073672072656320403A200061742B636DC4
:1018660067723D002200556E6B6E6F776E206E7547
:101876006D6265722064657465637465643A200000
:101886000D0A002000766D303031006100756E6102
:101896007661696C61626C652070726F64756374E1
:1018A600004572726F723A200044726F7070696EF2
:1018B600670050726F647563743A20004F766572E4
:1018C60066616C6C206572726F720044726F703A5A
:1018D600200070726F64756374436F646520696E6F
:1018E60076616C69640070696E436F646520696E29
:1018F60076616C6964004572726F723A20756E6427
:101906002E0070696E436F6465206C656E6774683F
:1019160000636F756C646E27742072656164206D58
:101926006573736167652066726F6D2047534D203E
:101936006D6F64656D004572722052656164696EF3
:101946006720534D530061742B636D67643D004DF2
:101956006573736167652052656365697665643A88
:101966000064756D6D79206D6573736167650044FC
:10197600726F70207375636365737300FFFF0D2BC1
:101986003937373938303332313738333800DF02B8
:101996002B3937373938343934313031333200F076
:1019A600020D0A2B63746D693A2022524543205278
:1019B600454144222C20222B3937373938303733EA
:1019C6003833343334222C202261736466736466A0
:1019D600220D0A627574726F7320564D30303120B5
:1019E6004130330D0A4F4B0D0A00200063040000FE
:00000001FF
